{
  "contractName": "owned",
  "abi": [
    {
      "constant": true,
      "inputs": [],
      "name": "owner",
      "outputs": [
        {
          "name": "",
          "type": "address"
        }
      ],
      "payable": false,
      "stateMutability": "view",
      "type": "function"
    },
    {
      "inputs": [],
      "payable": false,
      "stateMutability": "nonpayable",
      "type": "constructor"
    },
    {
      "constant": false,
      "inputs": [
        {
          "name": "newOwner",
          "type": "address"
        }
      ],
      "name": "transferOwnership",
      "outputs": [],
      "payable": false,
      "stateMutability": "nonpayable",
      "type": "function"
    }
  ],
  "bytecode": "0x6060604052341561000f57600080fd5b336000806101000a81548173ffffffffffffffffffffffffffffffffffffffff021916908373ffffffffffffffffffffffffffffffffffffffff1602179055506101ce8061005e6000396000f30060606040526004361061004c576000357c0100000000000000000000000000000000000000000000000000000000900463ffffffff1680638da5cb5b14610051578063f2fde38b146100a6575b600080fd5b341561005c57600080fd5b6100646100df565b604051808273ffffffffffffffffffffffffffffffffffffffff1673ffffffffffffffffffffffffffffffffffffffff16815260200191505060405180910390f35b34156100b157600080fd5b6100dd600480803573ffffffffffffffffffffffffffffffffffffffff16906020019091905050610104565b005b6000809054906101000a900473ffffffffffffffffffffffffffffffffffffffff1681565b6000809054906101000a900473ffffffffffffffffffffffffffffffffffffffff1673ffffffffffffffffffffffffffffffffffffffff163373ffffffffffffffffffffffffffffffffffffffff1614151561015f57600080fd5b806000806101000a81548173ffffffffffffffffffffffffffffffffffffffff021916908373ffffffffffffffffffffffffffffffffffffffff160217905550505600a165627a7a72305820aab42174b32cc623ef157016a9e957a2ea1a02b565a6db39dd10220c29b4d6f30029",
  "source": "pragma solidity 0.4.19;\n\nlibrary SafeMath {\n\n  function mul(uint256 a, uint256 b) internal pure returns (uint256) {\n    if (a == 0) {\n      return 0;\n    }\n    uint256 c = a * b;\n    assert(c / a == b);\n    return c;\n  }\n\n  function div(uint256 a, uint256 b) internal pure returns (uint256) {\n    // assert(b > 0); // Solidity automatically throws when dividing by 0\n    uint256 c = a / b;\n    // assert(a == b * c + a % b); // There is no case in which this doesn't hold\n    return c;\n  }\n\n  function sub(uint256 a, uint256 b) internal pure returns (uint256) {\n    assert(b <= a);\n    return a - b;\n  }\n\n  function add(uint256 a, uint256 b) internal pure returns (uint256) {\n    uint256 c = a + b;\n    assert(c >= a);\n    return c;\n  }\n}\n\ncontract owned {\n    address public owner;\n\n    function owned() public {\n        owner = msg.sender;\n    }\n\n    modifier onlyOwner {\n        require(msg.sender == owner);\n        _;\n    }\n\n    function transferOwnership(address newOwner) onlyOwner public {\n        owner = newOwner;\n    }\n\n}\n\ninterface tokenRecipient { function receiveApproval(address _from, uint256 _value, address _token, bytes _extraData) public; }\n\ncontract Token {\n\n    function totalSupply() constant returns (uint256 supply) {}\n    function balanceOf(address _owner) constant returns (uint256 balance) {}\n    function transfer(address _to, uint256 _value) returns (bool success) {}\n    function transferFrom(address _from, address _to, uint256 _value) returns (bool success) {}\n    function approve(address _spender, uint256 _value) returns (bool success) {}\n    function allowance(address _owner, address _spender) constant returns (uint256 remaining) {}\n\n    event Transfer(address indexed _from, address indexed _to, uint256 _value);\n    event Approval(address indexed _owner, address indexed _spender, uint256 _value);\n}\n\ncontract StandardToken is Token {\n\n    using SafeMath for uint256;\n\n    function transfer(address _to, uint256 _value) returns (bool success) {\n        if (balances[msg.sender] >= _value && _value > 0) {\n            balances[msg.sender] = balances[msg.sender].sub(_value);\n            balances[_to] = balances[_to].add(_value);\n            Transfer(msg.sender, _to, _value);\n            return true;\n        } else { return false; }\n    }\n\n    function transferFrom(address _from, address _to, uint256 _value) returns (bool success) {\n        if (balances[_from] >= _value && allowed[_from][msg.sender] >= _value && _value > 0) {\n            balances[_to] = balances[_to].add(_value);\n            balances[_from] = balances[_from].sub(_value);\n            allowed[_from][msg.sender] = allowed[_from][msg.sender].sub(_value);\n            Transfer(_from, _to, _value);\n            return true;\n        } else { return false; }\n    }\n\n    function balanceOf(address _owner) constant returns (uint256 balance) {\n        return balances[_owner];\n    }\n\n    function approve(address _spender, uint256 _value) returns (bool success) {\n        allowed[msg.sender][_spender] = _value;\n        Approval(msg.sender, _spender, _value);\n        return true;\n    }\n\n    function approveAndCall(address _spender, uint256 _value, bytes _extraData) public returns (bool success) {\n        tokenRecipient spender = tokenRecipient(_spender);\n        if (approve(_spender, _value)) {\n            spender.receiveApproval(msg.sender, _value, this, _extraData);\n            return true;\n        }\n    }\n\n    function allowance(address _owner, address _spender) constant returns (uint256 remaining) {\n      return allowed[_owner][_spender];\n    }\n\n    function burn(uint256 _value) public returns (bool success) {\n        require(balances[msg.sender] >= _value);\n        balances[msg.sender] = balances[msg.sender].sub(_value);\n        totalSupply = totalSupply.sub(_value);\n        Burn(msg.sender, _value);\n        return true;\n    }\n\n    function burnFrom(address _from, uint256 _value) public returns (bool success) {\n        require(balances[_from] >= _value);\n        require(_value <= allowed[_from][msg.sender]);\n        balances[_from] = balances[_from].sub(_value);\n        allowed[_from][msg.sender] = allowed[_from][msg.sender].sub(_value);\n        totalSupply = totalSupply.sub(_value);\n        Burn(_from, _value);\n        return true;\n    }\n    event Burn(address indexed from, uint256 value);\n    mapping (address => uint256) balances;\n    mapping (address => mapping (address => uint256)) allowed;\n    uint256 public totalSupply;\n}\n\ncontract myToken10 is owned,StandardToken {\n\n    using SafeMath for uint256;\n\n    function () {\n        //if ether is sent to this address, send it back.\n        throw;\n    }\n\n    /* Public variables of the token */\n    uint256 public supplyAmount = 10000000;\n    string  public name;\n    uint8   public decimals;\n    string  public symbol;\n\n    uint256 public sellPrice = 6000;\n    uint256 public buyPrice = 6000;\n\n    uint256 public availableSupply = 60000;\n\n    mapping (address => bool) public frozenAccount;\n    event FrozenFunds(address target, bool frozen);\n    event Buy(address _buyer, uint256 _fund);\n    event Sell(address _seller, uint256 _fund, uint256 _sellPrice);\n    event Send(address _from, address _to, uint256 _amount);\n\n    function myToken10(\n        ) {\n        totalSupply = supplyAmount;\n        balances[owner] = totalSupply;\n        name = \"TOK10\";\n        decimals = 18;\n        symbol = \"TOK10\";\n        availableSupply = 0;\n    }\n\n    function _transfer(address _from, address _to, uint256 _value) internal {\n        require (_to != 0x0);                                                   // Prevent transfer to 0x0 address. Use burn() instead\n        require (balances[_from] >= _value);                                    // Check if the sender has enough\n        require (balances[_to].add(_value) > balances[_to]);                    // Check for overflows\n        require(!frozenAccount[_from]);                                         // Check if sender is frozen\n        require(!frozenAccount[_to]);                                           // Check if recipient is frozen\n        balances[_from] = balances[_from].sub(_value);                          // Subtract from the sender\n        balances[_to] = balances[_to].add(_value);                              // Add the same to the recipient\n        Transfer(_from, _to, _value);\n    }\n\n    function mintToken(address target, uint256 mintedAmount) onlyOwner public {\n        balances[target] = balances[target].add(mintedAmount);\n        totalSupply = totalSupply.add(mintedAmount);\n        Transfer(0, this, mintedAmount);\n        Transfer(this, target, mintedAmount);\n    }\n\n    function freezeAccount(address target, bool freeze) onlyOwner public {\n        frozenAccount[target] = freeze;\n        FrozenFunds(target, freeze);\n    }\n\n    function setPrices(uint256 newSellPrice, uint256 newBuyPrice) onlyOwner public {\n        sellPrice = newSellPrice;\n        buyPrice = newBuyPrice;\n    }\n\n    function setAvailableSupply(uint256 _value) onlyOwner public {\n        require (balances[owner] >= _value);\n        availableSupply = _value;\n    }\n\n    function buy(address _buyer, uint256 _amount) public {\n        require(availableSupply > 0);\n        require(availableSupply >= availableSupply.sub(_amount));\n        require(balances[owner] >= _amount);\n        availableSupply = availableSupply.sub(_amount);\n        _transfer(owner, _buyer, _amount);\n        Buy(_buyer, _amount);\n    }\n\n    function sell(address _seller, uint256 _amount) public {\n        require(balances[owner] >= _amount);\n        _transfer(_seller, owner, _amount);\n        Sell(_seller, _amount, sellPrice);                                       // prove the current sellPrice\n    }\n\n    function send(address _from, address _to, uint256 _amount) public {\n        _transfer(_from, _to, _amount);\n        Send(_from, _to, _amount);\n    }\n\n    uint256 public divResult;\n    uint256 public mulResult;\n\n    function divTest(uint256 _value) public returns (uint256 _sellResult) {\n      divResult = sellPrice.div(_value);\n      return divResult;\n    }\n    function mulTest(uint256 _value) public returns (uint256 _buyResult) {\n      mulResult = buyPrice.mul(_value);\n      return mulResult;\n    }\n}\n",
  "sourcePath": "/Users/rachel/myToken10/contracts/myToken10.sol",
  "compiler": {
    "name": "solc",
    "version": "0.4.19+commit.c4cbbb05.Emscripten.clang"
  },
  "schemaVersion": "2.0.0",
  "updatedAt": "2018-04-02T06:02:50.664Z"
}